0130004005010000123456789EUR2 DUPONT JEAN-PIERRE                  150326                         0000001567890E         
0430004005010000123456789         15032612      VIR RECU STRIPE PAYMENTS SP      SP00315  0000000123456C                
0530004005010000123456789         15032612      STRIPE PAYMENTS SP PAYOUT MARS 2026 REF SP-20260315-001                 
0430004005010000123456789         14032603      PRLV SEPA OVH SAS HEBERGEMENT    OV00314  0000000004599D                
0530004005010000123456789         14032603      OVH SAS FR76 3000 4000 0500 0001 2345 678 HOSTING WEB                   
0430004005010000123456789         13032606      CB AMAZON EU SARL CARTE 5765     AM00313  0000000012785D                
0430004005010000123456789         12032612      VIR RECU PAYPAL EUROPE SARL      PP00312  0000000056789C                
0530004005010000123456789         12032612      PAYPAL EUROPE SARL TRANSFER 8PN42XRTFD                                  
0430004005010000123456789         11032603      PRLV SEPA FREE MOBILE FORFAIT    FR00311  0000000001999D                
0430004005010000123456789         10032612      VIR RECU MOLLIE PAYMENTS BV      MO00310  0000000245678C                
0530004005010000123456789         10032612      MOLLIE PAYMENTS BV SETTLEMENT STL-202603 PAYOUT                         
0430004005010000123456789         09032603      PRLV SEPA EDF ELECTRICITE        ED00309  0000000015630D                
0430004005010000123456789         08032612      VIR RECU CLIENT DUPONT JEAN      CL00308  0000000320000C                
0530004005010000123456789         08032612      CLIENT DUPONT JEAN FACTURE FACT-2026-042 DEVELOPPEMENT WEB              
0730004005010000123456789EUR2 DUPONT JEAN-PIERRE                  150326                         0000001567890E         
